{
  "contractName": "DocCert",
  "abi": [
    {
      "inputs": [],
      "stateMutability": "nonpayable",
      "type": "constructor"
    },
    {
      "anonymous": false,
      "inputs": [
        {
          "indexed": true,
          "internalType": "bytes32",
          "name": "role",
          "type": "bytes32"
        },
        {
          "indexed": true,
          "internalType": "bytes32",
          "name": "previousAdminRole",
          "type": "bytes32"
        },
        {
          "indexed": true,
          "internalType": "bytes32",
          "name": "newAdminRole",
          "type": "bytes32"
        }
      ],
      "name": "RoleAdminChanged",
      "type": "event"
    },
    {
      "anonymous": false,
      "inputs": [
        {
          "indexed": true,
          "internalType": "bytes32",
          "name": "role",
          "type": "bytes32"
        },
        {
          "indexed": true,
          "internalType": "address",
          "name": "account",
          "type": "address"
        },
        {
          "indexed": true,
          "internalType": "address",
          "name": "sender",
          "type": "address"
        }
      ],
      "name": "RoleGranted",
      "type": "event"
    },
    {
      "anonymous": false,
      "inputs": [
        {
          "indexed": true,
          "internalType": "bytes32",
          "name": "role",
          "type": "bytes32"
        },
        {
          "indexed": true,
          "internalType": "address",
          "name": "account",
          "type": "address"
        },
        {
          "indexed": true,
          "internalType": "address",
          "name": "sender",
          "type": "address"
        }
      ],
      "name": "RoleRevoked",
      "type": "event"
    },
    {
      "inputs": [],
      "name": "DEFAULT_ADMIN_ROLE",
      "outputs": [
        {
          "internalType": "bytes32",
          "name": "",
          "type": "bytes32"
        }
      ],
      "stateMutability": "view",
      "type": "function",
      "constant": true
    },
    {
      "inputs": [
        {
          "internalType": "bytes32",
          "name": "role",
          "type": "bytes32"
        }
      ],
      "name": "getRoleAdmin",
      "outputs": [
        {
          "internalType": "bytes32",
          "name": "",
          "type": "bytes32"
        }
      ],
      "stateMutability": "view",
      "type": "function",
      "constant": true
    },
    {
      "inputs": [
        {
          "internalType": "bytes32",
          "name": "role",
          "type": "bytes32"
        },
        {
          "internalType": "address",
          "name": "account",
          "type": "address"
        }
      ],
      "name": "grantRole",
      "outputs": [],
      "stateMutability": "nonpayable",
      "type": "function"
    },
    {
      "inputs": [
        {
          "internalType": "bytes32",
          "name": "role",
          "type": "bytes32"
        },
        {
          "internalType": "address",
          "name": "account",
          "type": "address"
        }
      ],
      "name": "hasRole",
      "outputs": [
        {
          "internalType": "bool",
          "name": "",
          "type": "bool"
        }
      ],
      "stateMutability": "view",
      "type": "function",
      "constant": true
    },
    {
      "inputs": [
        {
          "internalType": "bytes32",
          "name": "role",
          "type": "bytes32"
        },
        {
          "internalType": "address",
          "name": "account",
          "type": "address"
        }
      ],
      "name": "renounceRole",
      "outputs": [],
      "stateMutability": "nonpayable",
      "type": "function"
    },
    {
      "inputs": [
        {
          "internalType": "bytes32",
          "name": "role",
          "type": "bytes32"
        },
        {
          "internalType": "address",
          "name": "account",
          "type": "address"
        }
      ],
      "name": "revokeRole",
      "outputs": [],
      "stateMutability": "nonpayable",
      "type": "function"
    },
    {
      "inputs": [
        {
          "internalType": "bytes4",
          "name": "interfaceId",
          "type": "bytes4"
        }
      ],
      "name": "supportsInterface",
      "outputs": [
        {
          "internalType": "bool",
          "name": "",
          "type": "bool"
        }
      ],
      "stateMutability": "view",
      "type": "function",
      "constant": true
    },
    {
      "inputs": [
        {
          "internalType": "string",
          "name": "hashFile",
          "type": "string"
        },
        {
          "internalType": "string",
          "name": "cidFile",
          "type": "string"
        }
      ],
      "name": "addFile",
      "outputs": [],
      "stateMutability": "nonpayable",
      "type": "function"
    },
    {
      "inputs": [
        {
          "internalType": "string",
          "name": "hashFile",
          "type": "string"
        }
      ],
      "name": "verifica",
      "outputs": [
        {
          "internalType": "string",
          "name": "",
          "type": "string"
        },
        {
          "internalType": "address[]",
          "name": "",
          "type": "address[]"
        },
        {
          "internalType": "uint256",
          "name": "",
          "type": "uint256"
        },
        {
          "internalType": "uint256",
          "name": "",
          "type": "uint256"
        }
      ],
      "stateMutability": "view",
      "type": "function",
      "constant": true
    },
    {
      "inputs": [
        {
          "internalType": "string",
          "name": "hashFile",
          "type": "string"
        },
        {
          "internalType": "address",
          "name": "newAddress",
          "type": "address"
        }
      ],
      "name": "setOwner",
      "outputs": [],
      "stateMutability": "nonpayable",
      "type": "function"
    },
    {
      "inputs": [
        {
          "internalType": "string",
          "name": "hashFile",
          "type": "string"
        }
      ],
      "name": "getCid",
      "outputs": [
        {
          "internalType": "string",
          "name": "",
          "type": "string"
        }
      ],
      "stateMutability": "view",
      "type": "function",
      "constant": true
    }
  ],
  "bytecode": "0x608060405234801561001057600080fd5b50611907806100206000396000f3fe608060405234801561001057600080fd5b50600436106100a95760003560e01c806333e17c601161007157806333e17c601461016257806336568abe146101925780637aed71cf146101ae57806391d14854146101e1578063a217fddf14610211578063d547741f1461022f576100a9565b806301ffc9a7146100ae578063092b25e9146100de578063248a9ca3146100fa578063248bfc3b1461012a5780632f2ff15d14610146575b600080fd5b6100c860048036038101906100c39190610eac565b61024b565b6040516100d59190610ef4565b60405180910390f35b6100f860048036038101906100f391906110b3565b6102c5565b005b610114600480360381019061010f9190611145565b610377565b6040516101219190611181565b60405180910390f35b610144600480360381019061013f919061119c565b610396565b005b610160600480360381019061015b9190611214565b610529565b005b61017c60048036038101906101779190611254565b610552565b6040516101899190611325565b60405180910390f35b6101ac60048036038101906101a79190611214565b610627565b005b6101c860048036038101906101c39190611254565b6106aa565b6040516101d8949392919061141e565b60405180910390f35b6101fb60048036038101906101f69190611214565b6107f7565b6040516102089190610ef4565b60405180910390f35b610219610861565b6040516102269190611181565b60405180910390f35b61024960048036038101906102449190611214565b610868565b005b60007f7965db0b000000000000000000000000000000000000000000000000000000007bffffffffffffffffffffffffffffffffffffffffffffffffffffffff1916827bffffffffffffffffffffffffffffffffffffffffffffffffffffffff191614806102be57506102bd82610891565b5b9050919050565b6000826102d1906114ae565b90506102dd81336107f7565b6102e657600080fd5b6001836040516102f69190611551565b9081526020016040518091039020600201829080600181540180825580915050600190039060005260206000200160009091909190916101000a81548173ffffffffffffffffffffffffffffffffffffffff021916908373ffffffffffffffffffffffffffffffffffffffff16021790555061037281836108fb565b505050565b6000806000838152602001908152602001600020600101549050919050565b6001826040516103a69190611551565b908152602001604051809103902060000160009054906101000a900460ff16156103cf57600080fd5b600180836040516103e09190611551565b908152602001604051809103902060000160006101000a81548160ff021916908315150217905550806001836040516104199190611551565b9081526020016040518091039020600101908051906020019061043d929190610d9d565b5060018260405161044e9190611551565b9081526020016040518091039020600201339080600181540180825580915050600190039060005260206000200160009091909190916101000a81548173ffffffffffffffffffffffffffffffffffffffff021916908373ffffffffffffffffffffffffffffffffffffffff160217905550426001836040516104d19190611551565b908152602001604051809103902060030181905550436001836040516104f79190611551565b908152602001604051809103902060040181905550600082610518906114ae565b905061052481336108fb565b505050565b61053282610377565b6105438161053e6109db565b6109e3565b61054d83836108fb565b505050565b6060600082610560906114ae565b905061056c81336107f7565b61057557600080fd5b6001836040516105859190611551565b908152602001604051809103902060010180546105a190611597565b80601f01602080910402602001604051908101604052809291908181526020018280546105cd90611597565b801561061a5780601f106105ef5761010080835404028352916020019161061a565b820191906000526020600020905b8154815290600101906020018083116105fd57829003601f168201915b5050505050915050919050565b61062f6109db565b73ffffffffffffffffffffffffffffffffffffffff168173ffffffffffffffffffffffffffffffffffffffff161461069c576040517f08c379a00000000000000000000000000000000000000000000000000000000081526004016106939061163b565b60405180910390fd5b6106a68282610a80565b5050565b6060806000806001856040516106c09190611551565b908152602001604051809103902060000160009054906101000a900460ff166106e857600080fd5b6001856040516106f89190611551565b90815260200160405180910390206002016001866040516107199190611551565b90815260200160405180910390206003015460018760405161073b9190611551565b90815260200160405180910390206004015460405180602001604052806000815250929190828054806020026020016040519081016040528092919081815260200182805480156107e157602002820191906000526020600020905b8160009054906101000a900473ffffffffffffffffffffffffffffffffffffffff1673ffffffffffffffffffffffffffffffffffffffff1681526020019060010190808311610797575b5050505050925093509350935093509193509193565b600080600084815260200190815260200160002060000160008373ffffffffffffffffffffffffffffffffffffffff1673ffffffffffffffffffffffffffffffffffffffff16815260200190815260200160002060009054906101000a900460ff16905092915050565b6000801b81565b61087182610377565b6108828161087d6109db565b6109e3565b61088c8383610a80565b505050565b60007f01ffc9a7000000000000000000000000000000000000000000000000000000007bffffffffffffffffffffffffffffffffffffffffffffffffffffffff1916827bffffffffffffffffffffffffffffffffffffffffffffffffffffffff1916149050919050565b61090582826107f7565b6109d757600160008084815260200190815260200160002060000160008373ffffffffffffffffffffffffffffffffffffffff1673ffffffffffffffffffffffffffffffffffffffff16815260200190815260200160002060006101000a81548160ff02191690831515021790555061097c6109db565b73ffffffffffffffffffffffffffffffffffffffff168173ffffffffffffffffffffffffffffffffffffffff16837f2f8788117e7eff1d82e926ec794901d17c78024a50270940304540a733656f0d60405160405180910390a45b5050565b600033905090565b6109ed82826107f7565b610a7c57610a128173ffffffffffffffffffffffffffffffffffffffff166014610b61565b610a208360001c6020610b61565b604051602001610a319291906116f3565b6040516020818303038152906040526040517f08c379a0000000000000000000000000000000000000000000000000000000008152600401610a739190611325565b60405180910390fd5b5050565b610a8a82826107f7565b15610b5d57600080600084815260200190815260200160002060000160008373ffffffffffffffffffffffffffffffffffffffff1673ffffffffffffffffffffffffffffffffffffffff16815260200190815260200160002060006101000a81548160ff021916908315150217905550610b026109db565b73ffffffffffffffffffffffffffffffffffffffff168173ffffffffffffffffffffffffffffffffffffffff16837ff6391f5c32d9c69d2a47ea670b442974b53935d1edc7fd64eb21e047a839171b60405160405180910390a45b5050565b606060006002836002610b74919061175c565b610b7e91906117b6565b67ffffffffffffffff811115610b9757610b96610f2a565b5b6040519080825280601f01601f191660200182016040528015610bc95781602001600182028036833780820191505090505b5090507f300000000000000000000000000000000000000000000000000000000000000081600081518110610c0157610c0061180c565b5b60200101907effffffffffffffffffffffffffffffffffffffffffffffffffffffffffffff1916908160001a9053507f780000000000000000000000000000000000000000000000000000000000000081600181518110610c6557610c6461180c565b5b60200101907effffffffffffffffffffffffffffffffffffffffffffffffffffffffffffff1916908160001a90535060006001846002610ca5919061175c565b610caf91906117b6565b90505b6001811115610d4f577f3031323334353637383961626364656600000000000000000000000000000000600f861660108110610cf157610cf061180c565b5b1a60f81b828281518110610d0857610d0761180c565b5b60200101907effffffffffffffffffffffffffffffffffffffffffffffffffffffffffffff1916908160001a905350600485901c945080610d489061183b565b9050610cb2565b5060008414610d93576040517f08c379a0000000000000000000000000000000000000000000000000000000008152600401610d8a906118b1565b60405180910390fd5b8091505092915050565b828054610da990611597565b90600052602060002090601f016020900481019282610dcb5760008555610e12565b82601f10610de457805160ff1916838001178555610e12565b82800160010185558215610e12579182015b82811115610e11578251825591602001919060010190610df6565b5b509050610e1f9190610e23565b5090565b5b80821115610e3c576000816000905550600101610e24565b5090565b6000604051905090565b600080fd5b600080fd5b60007fffffffff0000000000000000000000000000000000000000000000000000000082169050919050565b610e8981610e54565b8114610e9457600080fd5b50565b600081359050610ea681610e80565b92915050565b600060208284031215610ec257610ec1610e4a565b5b6000610ed084828501610e97565b91505092915050565b60008115159050919050565b610eee81610ed9565b82525050565b6000602082019050610f096000830184610ee5565b92915050565b600080fd5b600080fd5b6000601f19601f8301169050919050565b7f4e487b7100000000000000000000000000000000000000000000000000000000600052604160045260246000fd5b610f6282610f19565b810181811067ffffffffffffffff82111715610f8157610f80610f2a565b5b80604052505050565b6000610f94610e40565b9050610fa08282610f59565b919050565b600067ffffffffffffffff821115610fc057610fbf610f2a565b5b610fc982610f19565b9050602081019050919050565b82818337600083830152505050565b6000610ff8610ff384610fa5565b610f8a565b90508281526020810184848401111561101457611013610f14565b5b61101f848285610fd6565b509392505050565b600082601f83011261103c5761103b610f0f565b5b813561104c848260208601610fe5565b91505092915050565b600073ffffffffffffffffffffffffffffffffffffffff82169050919050565b600061108082611055565b9050919050565b61109081611075565b811461109b57600080fd5b50565b6000813590506110ad81611087565b92915050565b600080604083850312156110ca576110c9610e4a565b5b600083013567ffffffffffffffff8111156110e8576110e7610e4f565b5b6110f485828601611027565b92505060206111058582860161109e565b9150509250929050565b6000819050919050565b6111228161110f565b811461112d57600080fd5b50565b60008135905061113f81611119565b92915050565b60006020828403121561115b5761115a610e4a565b5b600061116984828501611130565b91505092915050565b61117b8161110f565b82525050565b60006020820190506111966000830184611172565b92915050565b600080604083850312156111b3576111b2610e4a565b5b600083013567ffffffffffffffff8111156111d1576111d0610e4f565b5b6111dd85828601611027565b925050602083013567ffffffffffffffff8111156111fe576111fd610e4f565b5b61120a85828601611027565b9150509250929050565b6000806040838503121561122b5761122a610e4a565b5b600061123985828601611130565b925050602061124a8582860161109e565b9150509250929050565b60006020828403121561126a57611269610e4a565b5b600082013567ffffffffffffffff81111561128857611287610e4f565b5b61129484828501611027565b91505092915050565b600081519050919050565b600082825260208201905092915050565b60005b838110156112d75780820151818401526020810190506112bc565b838111156112e6576000848401525b50505050565b60006112f78261129d565b61130181856112a8565b93506113118185602086016112b9565b61131a81610f19565b840191505092915050565b6000602082019050818103600083015261133f81846112ec565b905092915050565b600081519050919050565b600082825260208201905092915050565b6000819050602082019050919050565b61137c81611075565b82525050565b600061138e8383611373565b60208301905092915050565b6000602082019050919050565b60006113b282611347565b6113bc8185611352565b93506113c783611363565b8060005b838110156113f85781516113df8882611382565b97506113ea8361139a565b9250506001810190506113cb565b5085935050505092915050565b6000819050919050565b61141881611405565b82525050565b6000608082019050818103600083015261143881876112ec565b9050818103602083015261144c81866113a7565b905061145b604083018561140f565b611468606083018461140f565b95945050505050565b600081519050919050565b6000819050602082019050919050565b6000611498825161110f565b80915050919050565b600082821b905092915050565b60006114b982611471565b826114c38461147c565b90506114ce8161148c565b9250602082101561150e576115097fffffffffffffffffffffffffffffffffffffffffffffffffffffffffffffffff836020036008026114a1565b831692505b5050919050565b600081905092915050565b600061152b8261129d565b6115358185611515565b93506115458185602086016112b9565b80840191505092915050565b600061155d8284611520565b915081905092915050565b7f4e487b7100000000000000000000000000000000000000000000000000000000600052602260045260246000fd5b600060028204905060018216806115af57607f821691505b602082108114156115c3576115c2611568565b5b50919050565b7f416363657373436f6e74726f6c3a2063616e206f6e6c792072656e6f756e636560008201527f20726f6c657320666f722073656c660000000000000000000000000000000000602082015250565b6000611625602f836112a8565b9150611630826115c9565b604082019050919050565b6000602082019050818103600083015261165481611618565b9050919050565b7f416363657373436f6e74726f6c3a206163636f756e7420000000000000000000600082015250565b6000611691601783611515565b915061169c8261165b565b601782019050919050565b7f206973206d697373696e6720726f6c6520000000000000000000000000000000600082015250565b60006116dd601183611515565b91506116e8826116a7565b601182019050919050565b60006116fe82611684565b915061170a8285611520565b9150611715826116d0565b91506117218284611520565b91508190509392505050565b7f4e487b7100000000000000000000000000000000000000000000000000000000600052601160045260246000fd5b600061176782611405565b915061177283611405565b9250817fffffffffffffffffffffffffffffffffffffffffffffffffffffffffffffffff04831182151516156117ab576117aa61172d565b5b828202905092915050565b60006117c182611405565b91506117cc83611405565b9250827fffffffffffffffffffffffffffffffffffffffffffffffffffffffffffffffff038211156118015761180061172d565b5b828201905092915050565b7f4e487b7100000000000000000000000000000000000000000000000000000000600052603260045260246000fd5b600061184682611405565b9150600082141561185a5761185961172d565b5b600182039050919050565b7f537472696e67733a20686578206c656e67746820696e73756666696369656e74600082015250565b600061189b6020836112a8565b91506118a682611865565b602082019050919050565b600060208201905081810360008301526118ca8161188e565b905091905056fea26469706673582212202e08aafb0a73bc4a991af6448c2e1e0eceb8e0ab3baa8de8d048d266d763fdae64736f6c634300080a0033",
  "immutableReferences": {},
  "source": "// SPDX-License-Identifier: MIT\r\n\r\npragma solidity ^0.8.10;\r\n\r\nimport \"@openzeppelin/contracts/access/AccessControl.sol\";\r\n\r\ncontract DocCert is AccessControl{\r\n\r\n    struct Record {\r\n        bool exist;\r\n        string cid;\r\n        address[] owner;\r\n        uint timestamp;\r\n        uint blockNumber;\r\n    }\r\n\r\n    mapping(string => Record) private listCertFile;\r\n\r\n    constructor(){}\r\n    \r\n\r\n    function addFile(string memory  hashFile, string memory cidFile) public\r\n    {\r\n       require(!listCertFile[hashFile].exist);       \r\n    \r\n        listCertFile[hashFile].exist=true;\r\n        listCertFile[hashFile].cid=cidFile;\r\n        listCertFile[hashFile].owner.push(msg.sender);\r\n        listCertFile[hashFile].timestamp = block.timestamp;\r\n        listCertFile[hashFile].blockNumber = block.number;\r\n\r\n\r\n        bytes32 hashRole = bytes32(bytes(hashFile));\r\n        _grantRole(hashRole,msg.sender);\r\n    }\r\n\r\n    function verifica(string memory  hashFile) public view  returns (string memory, address[] memory, uint, uint )\r\n    {   \r\n\r\n        require(listCertFile[hashFile].exist);\r\n        return (\"\",listCertFile[hashFile].owner,listCertFile[hashFile].timestamp,listCertFile[hashFile].blockNumber);\r\n    }\r\n\r\n    function setOwner(string memory   hashFile,address newAddress) public\r\n    {   \r\n        bytes32 hashRole = bytes32(bytes(hashFile));\r\n        require(hasRole(hashRole,msg.sender));\r\n        listCertFile[hashFile].owner.push(newAddress);\r\n        _grantRole(hashRole,newAddress);\r\n    }\r\n\r\n    function getCid(string memory   hashFile) public view  returns (string memory)\r\n    {   \r\n        bytes32 hashRole = bytes32(bytes(hashFile));\r\n        require(hasRole(hashRole,msg.sender));\r\n        return listCertFile[hashFile].cid;\r\n    }\r\n\r\n\r\n}\r\n",
  "sourcePath": "C:\\Users\\vinny\\Documents\\GitHub\\DocCert\\cert-document-project\\contracts\\DocCert.sol",
  "compiler": {
    "name": "solc",
    "version": "0.8.10+commit.fc410830.Emscripten.clang"
  },
  "schemaVersion": "3.4.3",
  "updatedAt": "2021-12-08T14:34:27.212Z",
  "networkType": "ethereum",
  "devdoc": {
    "kind": "dev",
    "methods": {
      "getRoleAdmin(bytes32)": {
        "details": "Returns the admin role that controls `role`. See {grantRole} and {revokeRole}. To change a role's admin, use {_setRoleAdmin}."
      },
      "grantRole(bytes32,address)": {
        "details": "Grants `role` to `account`. If `account` had not been already granted `role`, emits a {RoleGranted} event. Requirements: - the caller must have ``role``'s admin role."
      },
      "hasRole(bytes32,address)": {
        "details": "Returns `true` if `account` has been granted `role`."
      },
      "renounceRole(bytes32,address)": {
        "details": "Revokes `role` from the calling account. Roles are often managed via {grantRole} and {revokeRole}: this function's purpose is to provide a mechanism for accounts to lose their privileges if they are compromised (such as when a trusted device is misplaced). If the calling account had been revoked `role`, emits a {RoleRevoked} event. Requirements: - the caller must be `account`."
      },
      "revokeRole(bytes32,address)": {
        "details": "Revokes `role` from `account`. If `account` had been granted `role`, emits a {RoleRevoked} event. Requirements: - the caller must have ``role``'s admin role."
      },
      "supportsInterface(bytes4)": {
        "details": "See {IERC165-supportsInterface}."
      }
    },
    "version": 1
  },
  "userdoc": {
    "kind": "user",
    "methods": {},
    "version": 1
  }
}