{
  "contractName": "DocCert",
  "abi": [
    {
      "inputs": [],
      "stateMutability": "nonpayable",
      "type": "constructor"
    },
    {
      "anonymous": false,
      "inputs": [
        {
          "indexed": true,
          "internalType": "bytes32",
          "name": "role",
          "type": "bytes32"
        },
        {
          "indexed": true,
          "internalType": "bytes32",
          "name": "previousAdminRole",
          "type": "bytes32"
        },
        {
          "indexed": true,
          "internalType": "bytes32",
          "name": "newAdminRole",
          "type": "bytes32"
        }
      ],
      "name": "RoleAdminChanged",
      "type": "event"
    },
    {
      "anonymous": false,
      "inputs": [
        {
          "indexed": true,
          "internalType": "bytes32",
          "name": "role",
          "type": "bytes32"
        },
        {
          "indexed": true,
          "internalType": "address",
          "name": "account",
          "type": "address"
        },
        {
          "indexed": true,
          "internalType": "address",
          "name": "sender",
          "type": "address"
        }
      ],
      "name": "RoleGranted",
      "type": "event"
    },
    {
      "anonymous": false,
      "inputs": [
        {
          "indexed": true,
          "internalType": "bytes32",
          "name": "role",
          "type": "bytes32"
        },
        {
          "indexed": true,
          "internalType": "address",
          "name": "account",
          "type": "address"
        },
        {
          "indexed": true,
          "internalType": "address",
          "name": "sender",
          "type": "address"
        }
      ],
      "name": "RoleRevoked",
      "type": "event"
    },
    {
      "inputs": [],
      "name": "DEFAULT_ADMIN_ROLE",
      "outputs": [
        {
          "internalType": "bytes32",
          "name": "",
          "type": "bytes32"
        }
      ],
      "stateMutability": "view",
      "type": "function",
      "constant": true
    },
    {
      "inputs": [
        {
          "internalType": "bytes32",
          "name": "role",
          "type": "bytes32"
        }
      ],
      "name": "getRoleAdmin",
      "outputs": [
        {
          "internalType": "bytes32",
          "name": "",
          "type": "bytes32"
        }
      ],
      "stateMutability": "view",
      "type": "function",
      "constant": true
    },
    {
      "inputs": [
        {
          "internalType": "bytes32",
          "name": "role",
          "type": "bytes32"
        },
        {
          "internalType": "address",
          "name": "account",
          "type": "address"
        }
      ],
      "name": "grantRole",
      "outputs": [],
      "stateMutability": "nonpayable",
      "type": "function"
    },
    {
      "inputs": [
        {
          "internalType": "bytes32",
          "name": "role",
          "type": "bytes32"
        },
        {
          "internalType": "address",
          "name": "account",
          "type": "address"
        }
      ],
      "name": "hasRole",
      "outputs": [
        {
          "internalType": "bool",
          "name": "",
          "type": "bool"
        }
      ],
      "stateMutability": "view",
      "type": "function",
      "constant": true
    },
    {
      "inputs": [
        {
          "internalType": "bytes32",
          "name": "role",
          "type": "bytes32"
        },
        {
          "internalType": "address",
          "name": "account",
          "type": "address"
        }
      ],
      "name": "renounceRole",
      "outputs": [],
      "stateMutability": "nonpayable",
      "type": "function"
    },
    {
      "inputs": [
        {
          "internalType": "bytes32",
          "name": "role",
          "type": "bytes32"
        },
        {
          "internalType": "address",
          "name": "account",
          "type": "address"
        }
      ],
      "name": "revokeRole",
      "outputs": [],
      "stateMutability": "nonpayable",
      "type": "function"
    },
    {
      "inputs": [
        {
          "internalType": "bytes4",
          "name": "interfaceId",
          "type": "bytes4"
        }
      ],
      "name": "supportsInterface",
      "outputs": [
        {
          "internalType": "bool",
          "name": "",
          "type": "bool"
        }
      ],
      "stateMutability": "view",
      "type": "function",
      "constant": true
    },
    {
      "inputs": [
        {
          "internalType": "string",
          "name": "hashFile",
          "type": "string"
        },
        {
          "internalType": "string",
          "name": "cidFile",
          "type": "string"
        }
      ],
      "name": "addFile",
      "outputs": [],
      "stateMutability": "nonpayable",
      "type": "function"
    },
    {
      "inputs": [
        {
          "internalType": "string",
          "name": "hashFile",
          "type": "string"
        }
      ],
      "name": "verifica",
      "outputs": [
        {
          "internalType": "address[]",
          "name": "",
          "type": "address[]"
        },
        {
          "internalType": "uint256",
          "name": "",
          "type": "uint256"
        },
        {
          "internalType": "uint256",
          "name": "",
          "type": "uint256"
        }
      ],
      "stateMutability": "view",
      "type": "function",
      "constant": true
    },
    {
      "inputs": [
        {
          "internalType": "string",
          "name": "hashFile",
          "type": "string"
        },
        {
          "internalType": "address",
          "name": "newAddress",
          "type": "address"
        }
      ],
      "name": "setOwner",
      "outputs": [],
      "stateMutability": "nonpayable",
      "type": "function"
    },
    {
      "inputs": [
        {
          "internalType": "string",
          "name": "hashFile",
          "type": "string"
        }
      ],
      "name": "getCid",
      "outputs": [
        {
          "internalType": "string",
          "name": "",
          "type": "string"
        }
      ],
      "stateMutability": "view",
      "type": "function",
      "constant": true
    }
  ],
  "bytecode": "0x608060405234801561001057600080fd5b50611af7806100206000396000f3fe608060405234801561001057600080fd5b50600436106100a95760003560e01c806333e17c601161007157806333e17c601461016257806336568abe146101925780637aed71cf146101ae57806391d14854146101e0578063a217fddf14610210578063d547741f1461022e576100a9565b806301ffc9a7146100ae578063092b25e9146100de578063248a9ca3146100fa578063248bfc3b1461012a5780632f2ff15d14610146575b600080fd5b6100c860048036038101906100c39190610f6d565b61024a565b6040516100d59190610fb5565b60405180910390f35b6100f860048036038101906100f39190611174565b6102c4565b005b610114600480360381019061010f9190611206565b6103ac565b6040516101219190611242565b60405180910390f35b610144600480360381019061013f919061125d565b6103cb565b005b610160600480360381019061015b91906112d5565b610594565b005b61017c60048036038101906101779190611315565b6105bd565b60405161018991906113e6565b60405180910390f35b6101ac60048036038101906101a791906112d5565b6106c8565b005b6101c860048036038101906101c39190611315565b61074b565b6040516101d7939291906114df565b60405180910390f35b6101fa60048036038101906101f591906112d5565b6108b8565b6040516102079190610fb5565b60405180910390f35b610218610922565b6040516102259190611242565b60405180910390f35b610248600480360381019061024391906112d5565b610929565b005b60007f7965db0b000000000000000000000000000000000000000000000000000000007bffffffffffffffffffffffffffffffffffffffffffffffffffffffff1916827bffffffffffffffffffffffffffffffffffffffffffffffffffffffff191614806102bd57506102bc82610952565b5b9050919050565b6000826102d09061155a565b90506102dc81336108b8565b61031b576040517f08c379a00000000000000000000000000000000000000000000000000000000081526004016103129061160d565b60405180910390fd5b60018360405161032b9190611669565b9081526020016040518091039020600201829080600181540180825580915050600190039060005260206000200160009091909190916101000a81548173ffffffffffffffffffffffffffffffffffffffff021916908373ffffffffffffffffffffffffffffffffffffffff1602179055506103a781836109bc565b505050565b6000806000838152602001908152602001600020600101549050919050565b6001826040516103db9190611669565b908152602001604051809103902060000160009054906101000a900460ff161561043a576040517f08c379a0000000000000000000000000000000000000000000000000000000008152600401610431906116cc565b60405180910390fd5b6001808360405161044b9190611669565b908152602001604051809103902060000160006101000a81548160ff021916908315150217905550806001836040516104849190611669565b908152602001604051809103902060010190805190602001906104a8929190610e5e565b506001826040516104b99190611669565b9081526020016040518091039020600201339080600181540180825580915050600190039060005260206000200160009091909190916101000a81548173ffffffffffffffffffffffffffffffffffffffff021916908373ffffffffffffffffffffffffffffffffffffffff1602179055504260018360405161053c9190611669565b908152602001604051809103902060030181905550436001836040516105629190611669565b9081526020016040518091039020600401819055506000826105839061155a565b905061058f81336109bc565b505050565b61059d826103ac565b6105ae816105a9610a9c565b610aa4565b6105b883836109bc565b505050565b60606000826105cb9061155a565b90506105d781336108b8565b610616576040517f08c379a000000000000000000000000000000000000000000000000000000000815260040161060d9061160d565b60405180910390fd5b6001836040516106269190611669565b908152602001604051809103902060010180546106429061171b565b80601f016020809104026020016040519081016040528092919081815260200182805461066e9061171b565b80156106bb5780601f10610690576101008083540402835291602001916106bb565b820191906000526020600020905b81548152906001019060200180831161069e57829003601f168201915b5050505050915050919050565b6106d0610a9c565b73ffffffffffffffffffffffffffffffffffffffff168173ffffffffffffffffffffffffffffffffffffffff161461073d576040517f08c379a0000000000000000000000000000000000000000000000000000000008152600401610734906117bf565b60405180910390fd5b6107478282610b41565b5050565b60606000806001846040516107609190611669565b908152602001604051809103902060000160009054906101000a900460ff166107be576040517f08c379a00000000000000000000000000000000000000000000000000000000081526004016107b59061182b565b60405180910390fd5b6001846040516107ce9190611669565b90815260200160405180910390206002016001856040516107ef9190611669565b9081526020016040518091039020600301546001866040516108119190611669565b908152602001604051809103902060040154828054806020026020016040519081016040528092919081815260200182805480156108a457602002820191906000526020600020905b8160009054906101000a900473ffffffffffffffffffffffffffffffffffffffff1673ffffffffffffffffffffffffffffffffffffffff168152602001906001019080831161085a575b505050505092509250925092509193909250565b600080600084815260200190815260200160002060000160008373ffffffffffffffffffffffffffffffffffffffff1673ffffffffffffffffffffffffffffffffffffffff16815260200190815260200160002060009054906101000a900460ff16905092915050565b6000801b81565b610932826103ac565b6109438161093e610a9c565b610aa4565b61094d8383610b41565b505050565b60007f01ffc9a7000000000000000000000000000000000000000000000000000000007bffffffffffffffffffffffffffffffffffffffffffffffffffffffff1916827bffffffffffffffffffffffffffffffffffffffffffffffffffffffff1916149050919050565b6109c682826108b8565b610a9857600160008084815260200190815260200160002060000160008373ffffffffffffffffffffffffffffffffffffffff1673ffffffffffffffffffffffffffffffffffffffff16815260200190815260200160002060006101000a81548160ff021916908315150217905550610a3d610a9c565b73ffffffffffffffffffffffffffffffffffffffff168173ffffffffffffffffffffffffffffffffffffffff16837f2f8788117e7eff1d82e926ec794901d17c78024a50270940304540a733656f0d60405160405180910390a45b5050565b600033905090565b610aae82826108b8565b610b3d57610ad38173ffffffffffffffffffffffffffffffffffffffff166014610c22565b610ae18360001c6020610c22565b604051602001610af29291906118e3565b6040516020818303038152906040526040517f08c379a0000000000000000000000000000000000000000000000000000000008152600401610b3491906113e6565b60405180910390fd5b5050565b610b4b82826108b8565b15610c1e57600080600084815260200190815260200160002060000160008373ffffffffffffffffffffffffffffffffffffffff1673ffffffffffffffffffffffffffffffffffffffff16815260200190815260200160002060006101000a81548160ff021916908315150217905550610bc3610a9c565b73ffffffffffffffffffffffffffffffffffffffff168173ffffffffffffffffffffffffffffffffffffffff16837ff6391f5c32d9c69d2a47ea670b442974b53935d1edc7fd64eb21e047a839171b60405160405180910390a45b5050565b606060006002836002610c35919061194c565b610c3f91906119a6565b67ffffffffffffffff811115610c5857610c57610feb565b5b6040519080825280601f01601f191660200182016040528015610c8a5781602001600182028036833780820191505090505b5090507f300000000000000000000000000000000000000000000000000000000000000081600081518110610cc257610cc16119fc565b5b60200101907effffffffffffffffffffffffffffffffffffffffffffffffffffffffffffff1916908160001a9053507f780000000000000000000000000000000000000000000000000000000000000081600181518110610d2657610d256119fc565b5b60200101907effffffffffffffffffffffffffffffffffffffffffffffffffffffffffffff1916908160001a90535060006001846002610d66919061194c565b610d7091906119a6565b90505b6001811115610e10577f3031323334353637383961626364656600000000000000000000000000000000600f861660108110610db257610db16119fc565b5b1a60f81b828281518110610dc957610dc86119fc565b5b60200101907effffffffffffffffffffffffffffffffffffffffffffffffffffffffffffff1916908160001a905350600485901c945080610e0990611a2b565b9050610d73565b5060008414610e54576040517f08c379a0000000000000000000000000000000000000000000000000000000008152600401610e4b90611aa1565b60405180910390fd5b8091505092915050565b828054610e6a9061171b565b90600052602060002090601f016020900481019282610e8c5760008555610ed3565b82601f10610ea557805160ff1916838001178555610ed3565b82800160010185558215610ed3579182015b82811115610ed2578251825591602001919060010190610eb7565b5b509050610ee09190610ee4565b5090565b5b80821115610efd576000816000905550600101610ee5565b5090565b6000604051905090565b600080fd5b600080fd5b60007fffffffff0000000000000000000000000000000000000000000000000000000082169050919050565b610f4a81610f15565b8114610f5557600080fd5b50565b600081359050610f6781610f41565b92915050565b600060208284031215610f8357610f82610f0b565b5b6000610f9184828501610f58565b91505092915050565b60008115159050919050565b610faf81610f9a565b82525050565b6000602082019050610fca6000830184610fa6565b92915050565b600080fd5b600080fd5b6000601f19601f8301169050919050565b7f4e487b7100000000000000000000000000000000000000000000000000000000600052604160045260246000fd5b61102382610fda565b810181811067ffffffffffffffff8211171561104257611041610feb565b5b80604052505050565b6000611055610f01565b9050611061828261101a565b919050565b600067ffffffffffffffff82111561108157611080610feb565b5b61108a82610fda565b9050602081019050919050565b82818337600083830152505050565b60006110b96110b484611066565b61104b565b9050828152602081018484840111156110d5576110d4610fd5565b5b6110e0848285611097565b509392505050565b600082601f8301126110fd576110fc610fd0565b5b813561110d8482602086016110a6565b91505092915050565b600073ffffffffffffffffffffffffffffffffffffffff82169050919050565b600061114182611116565b9050919050565b61115181611136565b811461115c57600080fd5b50565b60008135905061116e81611148565b92915050565b6000806040838503121561118b5761118a610f0b565b5b600083013567ffffffffffffffff8111156111a9576111a8610f10565b5b6111b5858286016110e8565b92505060206111c68582860161115f565b9150509250929050565b6000819050919050565b6111e3816111d0565b81146111ee57600080fd5b50565b600081359050611200816111da565b92915050565b60006020828403121561121c5761121b610f0b565b5b600061122a848285016111f1565b91505092915050565b61123c816111d0565b82525050565b60006020820190506112576000830184611233565b92915050565b6000806040838503121561127457611273610f0b565b5b600083013567ffffffffffffffff81111561129257611291610f10565b5b61129e858286016110e8565b925050602083013567ffffffffffffffff8111156112bf576112be610f10565b5b6112cb858286016110e8565b9150509250929050565b600080604083850312156112ec576112eb610f0b565b5b60006112fa858286016111f1565b925050602061130b8582860161115f565b9150509250929050565b60006020828403121561132b5761132a610f0b565b5b600082013567ffffffffffffffff81111561134957611348610f10565b5b611355848285016110e8565b91505092915050565b600081519050919050565b600082825260208201905092915050565b60005b8381101561139857808201518184015260208101905061137d565b838111156113a7576000848401525b50505050565b60006113b88261135e565b6113c28185611369565b93506113d281856020860161137a565b6113db81610fda565b840191505092915050565b6000602082019050818103600083015261140081846113ad565b905092915050565b600081519050919050565b600082825260208201905092915050565b6000819050602082019050919050565b61143d81611136565b82525050565b600061144f8383611434565b60208301905092915050565b6000602082019050919050565b600061147382611408565b61147d8185611413565b935061148883611424565b8060005b838110156114b95781516114a08882611443565b97506114ab8361145b565b92505060018101905061148c565b5085935050505092915050565b6000819050919050565b6114d9816114c6565b82525050565b600060608201905081810360008301526114f98186611468565b905061150860208301856114d0565b61151560408301846114d0565b949350505050565b600081519050919050565b6000819050602082019050919050565b600061154482516111d0565b80915050919050565b600082821b905092915050565b60006115658261151d565b8261156f84611528565b905061157a81611538565b925060208210156115ba576115b57fffffffffffffffffffffffffffffffffffffffffffffffffffffffffffffffff8360200360080261154d565b831692505b5050919050565b7f5574656e7465206e6f6e206175746f72697a7a61746f00000000000000000000600082015250565b60006115f7601683611369565b9150611602826115c1565b602082019050919050565b60006020820190508181036000830152611626816115ea565b9050919050565b600081905092915050565b60006116438261135e565b61164d818561162d565b935061165d81856020860161137a565b80840191505092915050565b60006116758284611638565b915081905092915050565b7f446f63756d656e746f206769612070726573656e746500000000000000000000600082015250565b60006116b6601683611369565b91506116c182611680565b602082019050919050565b600060208201905081810360008301526116e5816116a9565b9050919050565b7f4e487b7100000000000000000000000000000000000000000000000000000000600052602260045260246000fd5b6000600282049050600182168061173357607f821691505b60208210811415611747576117466116ec565b5b50919050565b7f416363657373436f6e74726f6c3a2063616e206f6e6c792072656e6f756e636560008201527f20726f6c657320666f722073656c660000000000000000000000000000000000602082015250565b60006117a9602f83611369565b91506117b48261174d565b604082019050919050565b600060208201905081810360008301526117d88161179c565b9050919050565b7f446f63756d656e746f20696e6573697374656e74650000000000000000000000600082015250565b6000611815601583611369565b9150611820826117df565b602082019050919050565b6000602082019050818103600083015261184481611808565b9050919050565b7f416363657373436f6e74726f6c3a206163636f756e7420000000000000000000600082015250565b600061188160178361162d565b915061188c8261184b565b601782019050919050565b7f206973206d697373696e6720726f6c6520000000000000000000000000000000600082015250565b60006118cd60118361162d565b91506118d882611897565b601182019050919050565b60006118ee82611874565b91506118fa8285611638565b9150611905826118c0565b91506119118284611638565b91508190509392505050565b7f4e487b7100000000000000000000000000000000000000000000000000000000600052601160045260246000fd5b6000611957826114c6565b9150611962836114c6565b9250817fffffffffffffffffffffffffffffffffffffffffffffffffffffffffffffffff048311821515161561199b5761199a61191d565b5b828202905092915050565b60006119b1826114c6565b91506119bc836114c6565b9250827fffffffffffffffffffffffffffffffffffffffffffffffffffffffffffffffff038211156119f1576119f061191d565b5b828201905092915050565b7f4e487b7100000000000000000000000000000000000000000000000000000000600052603260045260246000fd5b6000611a36826114c6565b91506000821415611a4a57611a4961191d565b5b600182039050919050565b7f537472696e67733a20686578206c656e67746820696e73756666696369656e74600082015250565b6000611a8b602083611369565b9150611a9682611a55565b602082019050919050565b60006020820190508181036000830152611aba81611a7e565b905091905056fea264697066735822122098c53dd85ec9011980ef3adf053a7302f155a5ccf96576fb00b77a163d3dee5364736f6c634300080a0033",
  "immutableReferences": {},
  "source": "// SPDX-License-Identifier: MIT\r\n\r\npragma solidity ^0.8.10;\r\n\r\nimport \"@openzeppelin/contracts/access/AccessControl.sol\";\r\n\r\ncontract DocCert is AccessControl{\r\n\r\n    struct Record {\r\n        bool exist;\r\n        string cid;\r\n        address[] owner;\r\n        uint timestamp;\r\n        uint blockNumber;\r\n    }\r\n\r\n    mapping(string => Record) private listCertFile;\r\n\r\n    constructor(){}\r\n    \r\n\r\n    function addFile(string memory hashFile, string memory cidFile) public\r\n    {\r\n       require(!listCertFile[hashFile].exist, \"Documento gia presente\");       \r\n    \r\n        listCertFile[hashFile].exist=true;\r\n        listCertFile[hashFile].cid=cidFile;\r\n        listCertFile[hashFile].owner.push(msg.sender);\r\n        listCertFile[hashFile].timestamp = block.timestamp;\r\n        listCertFile[hashFile].blockNumber = block.number;\r\n\r\n\r\n        bytes32 hashRole = bytes32(bytes(hashFile));\r\n        _grantRole(hashRole,msg.sender);\r\n    }\r\n\r\n    function verifica(string memory hashFile) public view  returns (address[] memory, uint, uint )\r\n    {   \r\n\r\n        require(listCertFile[hashFile].exist, \"Documento inesistente\");\r\n        return (listCertFile[hashFile].owner,listCertFile[hashFile].timestamp,listCertFile[hashFile].blockNumber);\r\n    }\r\n\r\n    function setOwner(string memory hashFile,address newAddress) public\r\n    {   \r\n        bytes32 hashRole = bytes32(bytes(hashFile));\r\n        require(hasRole(hashRole,msg.sender), \"Utente non autorizzato\");\r\n        listCertFile[hashFile].owner.push(newAddress);\r\n        _grantRole(hashRole,newAddress);\r\n    }\r\n\r\n    function getCid(string memory hashFile) public view  returns (string memory)\r\n    {   \r\n        bytes32 hashRole = bytes32(bytes(hashFile));\r\n        require(hasRole(hashRole,msg.sender), \"Utente non autorizzato\");\r\n        return listCertFile[hashFile].cid;\r\n    }\r\n\r\n\r\n}\r\n",
  "sourcePath": "C:\\Users\\vinny\\Documents\\GitHub\\DocCert\\cert-document-project\\contracts\\DocCert.sol",
  "compiler": {
    "name": "solc",
    "version": "0.8.10+commit.fc410830.Emscripten.clang"
  },
  "schemaVersion": "3.4.3",
  "updatedAt": "2021-12-10T16:08:57.187Z",
  "networkType": "ethereum",
  "devdoc": {
    "kind": "dev",
    "methods": {
      "getRoleAdmin(bytes32)": {
        "details": "Returns the admin role that controls `role`. See {grantRole} and {revokeRole}. To change a role's admin, use {_setRoleAdmin}."
      },
      "grantRole(bytes32,address)": {
        "details": "Grants `role` to `account`. If `account` had not been already granted `role`, emits a {RoleGranted} event. Requirements: - the caller must have ``role``'s admin role."
      },
      "hasRole(bytes32,address)": {
        "details": "Returns `true` if `account` has been granted `role`."
      },
      "renounceRole(bytes32,address)": {
        "details": "Revokes `role` from the calling account. Roles are often managed via {grantRole} and {revokeRole}: this function's purpose is to provide a mechanism for accounts to lose their privileges if they are compromised (such as when a trusted device is misplaced). If the calling account had been revoked `role`, emits a {RoleRevoked} event. Requirements: - the caller must be `account`."
      },
      "revokeRole(bytes32,address)": {
        "details": "Revokes `role` from `account`. If `account` had been granted `role`, emits a {RoleRevoked} event. Requirements: - the caller must have ``role``'s admin role."
      },
      "supportsInterface(bytes4)": {
        "details": "See {IERC165-supportsInterface}."
      }
    },
    "version": 1
  },
  "userdoc": {
    "kind": "user",
    "methods": {},
    "version": 1
  }
}