{
  "contractName": "DocCert",
  "abi": [
    {
      "inputs": [],
      "stateMutability": "nonpayable",
      "type": "constructor"
    },
    {
      "inputs": [
        {
          "internalType": "string",
          "name": "hashFile",
          "type": "string"
        },
        {
          "internalType": "string",
          "name": "cidFile",
          "type": "string"
        }
      ],
      "name": "addFile",
      "outputs": [],
      "stateMutability": "nonpayable",
      "type": "function"
    },
    {
      "inputs": [
        {
          "internalType": "string",
          "name": "hashFile",
          "type": "string"
        }
      ],
      "name": "verifica",
      "outputs": [
        {
          "internalType": "string",
          "name": "",
          "type": "string"
        },
        {
          "internalType": "address[]",
          "name": "",
          "type": "address[]"
        },
        {
          "internalType": "uint256",
          "name": "",
          "type": "uint256"
        },
        {
          "internalType": "uint256",
          "name": "",
          "type": "uint256"
        }
      ],
      "stateMutability": "view",
      "type": "function",
      "constant": true
    },
    {
      "inputs": [
        {
          "internalType": "string",
          "name": "hashFile",
          "type": "string"
        },
        {
          "internalType": "address",
          "name": "newAddress",
          "type": "address"
        }
      ],
      "name": "setOwner",
      "outputs": [],
      "stateMutability": "nonpayable",
      "type": "function"
    },
    {
      "inputs": [
        {
          "internalType": "string",
          "name": "hashFile",
          "type": "string"
        }
      ],
      "name": "getCid",
      "outputs": [
        {
          "internalType": "string",
          "name": "",
          "type": "string"
        }
      ],
      "stateMutability": "view",
      "type": "function",
      "constant": true
    }
  ],
  "bytecode": "0x608060405234801561001057600080fd5b5061114e806100206000396000f3fe608060405234801561001057600080fd5b506004361061004c5760003560e01c8063092b25e914610051578063248bfc3b1461006d57806333e17c60146100895780637aed71cf146100b9575b600080fd5b61006b60048036038101906100669190610bea565b6100ec565b005b61008760048036038101906100829190610c46565b6102b3565b005b6100a3600480360381019061009e9190610cbe565b61049d565b6040516100b09190610d8f565b60405180910390f35b6100d360048036038101906100ce9190610cbe565b610604565b6040516100e39493929190610e88565b60405180910390f35b6000826100f890610f22565b905060008054906101000a900473ffffffffffffffffffffffffffffffffffffffff1673ffffffffffffffffffffffffffffffffffffffff166391d1485482336040518363ffffffff1660e01b8152600401610155929190610fa7565b602060405180830381865afa158015610172573d6000803e3d6000fd5b505050506040513d601f19601f820116820180604052508101906101969190611008565b61019f57600080fd5b6001836040516101af9190611071565b9081526020016040518091039020600201829080600181540180825580915050600190039060005260206000200160009091909190916101000a81548173ffffffffffffffffffffffffffffffffffffffff021916908373ffffffffffffffffffffffffffffffffffffffff16021790555060008054906101000a900473ffffffffffffffffffffffffffffffffffffffff1673ffffffffffffffffffffffffffffffffffffffff16632f2ff15d82846040518363ffffffff1660e01b815260040161027c929190610fa7565b600060405180830381600087803b15801561029657600080fd5b505af11580156102aa573d6000803e3d6000fd5b50505050505050565b6001826040516102c39190611071565b908152602001604051809103902060000160009054906101000a900460ff16156102ec57600080fd5b6060338160008151811061030357610302611088565b5b602002602001019073ffffffffffffffffffffffffffffffffffffffff16908173ffffffffffffffffffffffffffffffffffffffff168152505060006040518060a001604052806001151581526020018481526020018381526020014281526020014381525090508060018560405161037c9190611071565b908152602001604051809103902060008201518160000160006101000a81548160ff02191690831515021790555060208201518160010190805190602001906103c69291906108d4565b5060408201518160020190805190602001906103e392919061095a565b50606082015181600301556080820151816004015590505060008461040790610f22565b905060008054906101000a900473ffffffffffffffffffffffffffffffffffffffff1673ffffffffffffffffffffffffffffffffffffffff16632f2ff15d82336040518363ffffffff1660e01b8152600401610464929190610fa7565b600060405180830381600087803b15801561047e57600080fd5b505af1158015610492573d6000803e3d6000fd5b505050505050505050565b60606000826104ab90610f22565b905060008054906101000a900473ffffffffffffffffffffffffffffffffffffffff1673ffffffffffffffffffffffffffffffffffffffff166391d1485482336040518363ffffffff1660e01b8152600401610508929190610fa7565b602060405180830381865afa158015610525573d6000803e3d6000fd5b505050506040513d601f19601f820116820180604052508101906105499190611008565b61055257600080fd5b6001836040516105629190611071565b9081526020016040518091039020600101805461057e906110e6565b80601f01602080910402602001604051908101604052809291908181526020018280546105aa906110e6565b80156105f75780601f106105cc576101008083540402835291602001916105f7565b820191906000526020600020905b8154815290600101906020018083116105da57829003601f168201915b5050505050915050919050565b60608060008060018560405161061a9190611071565b908152602001604051809103902060000160009054906101000a900460ff1661064257600080fd5b61064a6109e4565b60018660405161065a9190611071565b90815260200160405180910390206040518060a00160405290816000820160009054906101000a900460ff1615151515815260200160018201805461069e906110e6565b80601f01602080910402602001604051908101604052809291908181526020018280546106ca906110e6565b80156107175780601f106106ec57610100808354040283529160200191610717565b820191906000526020600020905b8154815290600101906020018083116106fa57829003601f168201915b50505050508152602001600282018054806020026020016040519081016040528092919081815260200182805480156107a557602002820191906000526020600020905b8160009054906101000a900473ffffffffffffffffffffffffffffffffffffffff1673ffffffffffffffffffffffffffffffffffffffff168152602001906001019080831161075b575b505050505081526020016003820154815260200160048201548152505090506001866040516107d49190611071565b90815260200160405180910390206002016001876040516107f59190611071565b9081526020016040518091039020600301546001886040516108179190611071565b90815260200160405180910390206004015460405180602001604052806000815250929190828054806020026020016040519081016040528092919081815260200182805480156108bd57602002820191906000526020600020905b8160009054906101000a900473ffffffffffffffffffffffffffffffffffffffff1673ffffffffffffffffffffffffffffffffffffffff1681526020019060010190808311610873575b505050505092509450945094509450509193509193565b8280546108e0906110e6565b90600052602060002090601f0160209004810192826109025760008555610949565b82601f1061091b57805160ff1916838001178555610949565b82800160010185558215610949579182015b8281111561094857825182559160200191906001019061092d565b5b5090506109569190610a15565b5090565b8280548282559060005260206000209081019282156109d3579160200282015b828111156109d25782518260006101000a81548173ffffffffffffffffffffffffffffffffffffffff021916908373ffffffffffffffffffffffffffffffffffffffff1602179055509160200191906001019061097a565b5b5090506109e09190610a15565b5090565b6040518060a00160405280600015158152602001606081526020016060815260200160008152602001600081525090565b5b80821115610a2e576000816000905550600101610a16565b5090565b6000604051905090565b600080fd5b600080fd5b600080fd5b600080fd5b6000601f19601f8301169050919050565b7f4e487b7100000000000000000000000000000000000000000000000000000000600052604160045260246000fd5b610a9982610a50565b810181811067ffffffffffffffff82111715610ab857610ab7610a61565b5b80604052505050565b6000610acb610a32565b9050610ad78282610a90565b919050565b600067ffffffffffffffff821115610af757610af6610a61565b5b610b0082610a50565b9050602081019050919050565b82818337600083830152505050565b6000610b2f610b2a84610adc565b610ac1565b905082815260208101848484011115610b4b57610b4a610a4b565b5b610b56848285610b0d565b509392505050565b600082601f830112610b7357610b72610a46565b5b8135610b83848260208601610b1c565b91505092915050565b600073ffffffffffffffffffffffffffffffffffffffff82169050919050565b6000610bb782610b8c565b9050919050565b610bc781610bac565b8114610bd257600080fd5b50565b600081359050610be481610bbe565b92915050565b60008060408385031215610c0157610c00610a3c565b5b600083013567ffffffffffffffff811115610c1f57610c1e610a41565b5b610c2b85828601610b5e565b9250506020610c3c85828601610bd5565b9150509250929050565b60008060408385031215610c5d57610c5c610a3c565b5b600083013567ffffffffffffffff811115610c7b57610c7a610a41565b5b610c8785828601610b5e565b925050602083013567ffffffffffffffff811115610ca857610ca7610a41565b5b610cb485828601610b5e565b9150509250929050565b600060208284031215610cd457610cd3610a3c565b5b600082013567ffffffffffffffff811115610cf257610cf1610a41565b5b610cfe84828501610b5e565b91505092915050565b600081519050919050565b600082825260208201905092915050565b60005b83811015610d41578082015181840152602081019050610d26565b83811115610d50576000848401525b50505050565b6000610d6182610d07565b610d6b8185610d12565b9350610d7b818560208601610d23565b610d8481610a50565b840191505092915050565b60006020820190508181036000830152610da98184610d56565b905092915050565b600081519050919050565b600082825260208201905092915050565b6000819050602082019050919050565b610de681610bac565b82525050565b6000610df88383610ddd565b60208301905092915050565b6000602082019050919050565b6000610e1c82610db1565b610e268185610dbc565b9350610e3183610dcd565b8060005b83811015610e62578151610e498882610dec565b9750610e5483610e04565b925050600181019050610e35565b5085935050505092915050565b6000819050919050565b610e8281610e6f565b82525050565b60006080820190508181036000830152610ea28187610d56565b90508181036020830152610eb68186610e11565b9050610ec56040830185610e79565b610ed26060830184610e79565b95945050505050565b600081519050919050565b6000819050602082019050919050565b6000819050919050565b6000610f0c8251610ef6565b80915050919050565b600082821b905092915050565b6000610f2d82610edb565b82610f3784610ee6565b9050610f4281610f00565b92506020821015610f8257610f7d7fffffffffffffffffffffffffffffffffffffffffffffffffffffffffffffffff83602003600802610f15565b831692505b5050919050565b610f9281610ef6565b82525050565b610fa181610bac565b82525050565b6000604082019050610fbc6000830185610f89565b610fc96020830184610f98565b9392505050565b60008115159050919050565b610fe581610fd0565b8114610ff057600080fd5b50565b60008151905061100281610fdc565b92915050565b60006020828403121561101e5761101d610a3c565b5b600061102c84828501610ff3565b91505092915050565b600081905092915050565b600061104b82610d07565b6110558185611035565b9350611065818560208601610d23565b80840191505092915050565b600061107d8284611040565b915081905092915050565b7f4e487b7100000000000000000000000000000000000000000000000000000000600052603260045260246000fd5b7f4e487b7100000000000000000000000000000000000000000000000000000000600052602260045260246000fd5b600060028204905060018216806110fe57607f821691505b60208210811415611112576111116110b7565b5b5091905056fea2646970667358221220e692267a6624fcc20001281bcbdbc14ac498edc658df55c0934f8dfa9c290cb564736f6c634300080a0033",
  "immutableReferences": {},
  "source": "// SPDX-License-Identifier: MIT\r\n\r\npragma solidity ^0.8.10;\r\n\r\nimport \"@openzeppelin/contracts/access/AccessControl.sol\";\r\n\r\ncontract DocCert {\r\n\r\n    struct Record {\r\n        bool exist;\r\n        string cid;\r\n        address[] owner;\r\n        uint timestamp;\r\n        uint blockNumber;\r\n    }\r\n\t\r\n    AccessControl private ac;\r\n    mapping(string => Record) private listCertFile;\r\n\r\n    constructor(){}\r\n    \r\n\r\n    function addFile(string memory hashFile, string memory cidFile) public  \r\n    {\r\n        require(!listCertFile[hashFile].exist);\r\n\r\n        address[] memory addArray;\r\n        addArray[0]=msg.sender;\r\n        \r\n        Record memory r = Record (true,cidFile,addArray,block.timestamp,block.number);\r\n        listCertFile[hashFile] = r;\r\n        bytes32 hashRole = bytes32(bytes(hashFile));\r\n        ac.grantRole(hashRole,msg.sender);\r\n    }\r\n\r\n    function verifica(string memory hashFile) public view returns (string memory , address[] memory, uint , uint )\r\n    {   \r\n\r\n        require(listCertFile[hashFile].exist);\r\n        Record memory r;\r\n        r = listCertFile[hashFile];\r\n        return (\"\",listCertFile[hashFile].owner,listCertFile[hashFile].timestamp,listCertFile[hashFile].blockNumber);\r\n    }\r\n\r\n    function setOwner(string memory hashFile,address newAddress) public\r\n    {   \r\n        bytes32 hashRole = bytes32(bytes(hashFile));\r\n        require(ac.hasRole(hashRole,msg.sender));\r\n        listCertFile[hashFile].owner.push(newAddress);\r\n        ac.grantRole(hashRole,newAddress);\r\n    }\r\n\r\n    function getCid(string memory hashFile) public view  returns (string memory)\r\n    {   \r\n        bytes32 hashRole = bytes32(bytes(hashFile));\r\n        require(ac.hasRole(hashRole,msg.sender));\r\n        return listCertFile[hashFile].cid;\r\n    }\r\n\r\n\r\n}\r\n",
  "sourcePath": "C:\\Users\\vinny\\Documents\\GitHub\\DocCert\\cert-document-project\\contracts\\DocCert.sol",
  "compiler": {
    "name": "solc",
    "version": "0.8.10+commit.fc410830.Emscripten.clang"
  },
  "schemaVersion": "3.4.3",
  "updatedAt": "2021-12-05T18:55:03.547Z",
  "networkType": "ethereum",
  "devdoc": {
    "kind": "dev",
    "methods": {},
    "version": 1
  },
  "userdoc": {
    "kind": "user",
    "methods": {},
    "version": 1
  }
}